{
  "contractName": "FileStorage",
  "abi": [
    {
      "inputs": [
        {
          "internalType": "string",
          "name": "",
          "type": "string"
        }
      ],
      "name": "fileHashes",
      "outputs": [
        {
          "internalType": "string",
          "name": "",
          "type": "string"
        }
      ],
      "stateMutability": "view",
      "type": "function",
      "constant": true
    },
    {
      "inputs": [
        {
          "internalType": "string",
          "name": "fileName",
          "type": "string"
        },
        {
          "internalType": "string",
          "name": "fileHash",
          "type": "string"
        }
      ],
      "name": "storeFile",
      "outputs": [],
      "stateMutability": "nonpayable",
      "type": "function"
    },
    {
      "inputs": [
        {
          "internalType": "string",
          "name": "fileName",
          "type": "string"
        }
      ],
      "name": "getFileHash",
      "outputs": [
        {
          "internalType": "string",
          "name": "",
          "type": "string"
        }
      ],
      "stateMutability": "view",
      "type": "function",
      "constant": true
    }
  ],
  "bytecode": "0x608060405234801561001057600080fd5b5061065b806100206000396000f3fe608060405234801561001057600080fd5b50600436106100415760003560e01c806320de1070146100465780634527525214610062578063f880680b14610092575b600080fd5b610060600480360381019061005b91906103ab565b6100c2565b005b61007c6004803603810190610077919061036a565b6100f9565b6040516100899190610498565b60405180910390f35b6100ac60048036038101906100a7919061036a565b6101af565b6040516100b99190610498565b60405180910390f35b806000836040516100d39190610481565b908152602001604051809103902090805190602001906100f492919061025f565b505050565b600081805160208101820180518482526020830160208501208183528095505050505050600091509050805461012e90610584565b80601f016020809104026020016040519081016040528092919081815260200182805461015a90610584565b80156101a75780601f1061017c576101008083540402835291602001916101a7565b820191906000526020600020905b81548152906001019060200180831161018a57829003601f168201915b505050505081565b60606000826040516101c19190610481565b908152602001604051809103902080546101da90610584565b80601f016020809104026020016040519081016040528092919081815260200182805461020690610584565b80156102535780601f1061022857610100808354040283529160200191610253565b820191906000526020600020905b81548152906001019060200180831161023657829003601f168201915b50505050509050919050565b82805461026b90610584565b90600052602060002090601f01602090048101928261028d57600085556102d4565b82601f106102a657805160ff19168380011785556102d4565b828001600101855582156102d4579182015b828111156102d35782518255916020019190600101906102b8565b5b5090506102e191906102e5565b5090565b5b808211156102fe5760008160009055506001016102e6565b5090565b6000610315610310846104eb565b6104ba565b90508281526020810184848401111561032d57600080fd5b610338848285610542565b509392505050565b600082601f83011261035157600080fd5b8135610361848260208601610302565b91505092915050565b60006020828403121561037c57600080fd5b600082013567ffffffffffffffff81111561039657600080fd5b6103a284828501610340565b91505092915050565b600080604083850312156103be57600080fd5b600083013567ffffffffffffffff8111156103d857600080fd5b6103e485828601610340565b925050602083013567ffffffffffffffff81111561040157600080fd5b61040d85828601610340565b9150509250929050565b60006104228261051b565b61042c8185610526565b935061043c818560208601610551565b61044581610614565b840191505092915050565b600061045b8261051b565b6104658185610537565b9350610475818560208601610551565b80840191505092915050565b600061048d8284610450565b915081905092915050565b600060208201905081810360008301526104b28184610417565b905092915050565b6000604051905081810181811067ffffffffffffffff821117156104e1576104e06105e5565b5b8060405250919050565b600067ffffffffffffffff821115610506576105056105e5565b5b601f19601f8301169050602081019050919050565b600081519050919050565b600082825260208201905092915050565b600081905092915050565b82818337600083830152505050565b60005b8381101561056f578082015181840152602081019050610554565b8381111561057e576000848401525b50505050565b6000600282049050600182168061059c57607f821691505b602082108114156105b0576105af6105b6565b5b50919050565b7f4e487b7100000000000000000000000000000000000000000000000000000000600052602260045260246000fd5b7f4e487b7100000000000000000000000000000000000000000000000000000000600052604160045260246000fd5b6000601f19601f830116905091905056fea26469706673582212200bb2c28c826255e3013c50dc736d4db9e52765fda7fbef15f9c7392acabea52064736f6c63430008000033",
  "immutableReferences": {},
  "source": "pragma solidity ^0.8.0;\n\ncontract FileStorage {\n    mapping(string => string) public fileHashes;\n\n    function storeFile(string memory fileName, string memory fileHash) public {\n        fileHashes[fileName] = fileHash;\n    }\n\n    function getFileHash(string memory fileName) public view returns (string memory) {\n        return fileHashes[fileName];\n    }\n}\n",
  "sourcePath": "C:\\Users\\Vibhanshu Jaiswal\\OneDrive\\Desktop\\major-project-core-main\\smart-contract\\contracts\\contract.sol",
  "compiler": {
    "name": "solc",
    "version": "0.8.0+commit.c7dfd78e.Emscripten.clang"
  },
  "schemaVersion": "3.4.16",
  "updatedAt": "2025-03-28T04:50:20.459Z",
  "networkType": "ethereum",
  "devdoc": {
    "kind": "dev",
    "methods": {},
    "version": 1
  },
  "userdoc": {
    "kind": "user",
    "methods": {},
    "version": 1
  }
}